:020000040800F2
:1000000070350020A1010008C9320008712D0008D8
:10001000993200087D100008D15C00080000000043
:10002000000000000000000000000000813C00080B
:100030001515000800000000B7010008353E000853
:10004000BB010008BB010008BB010008BB010008A0
:10005000BB010008BB010008BB010008BB01000890
:10006000BB010008BB010008BB010008BB01000880
:10007000BB010008BB010008BB010008BB01000870
:10008000BB010008BB010008BB010008BB01000860
:10009000BB010008BB010008BB01000819250008CE
:1000A000BB010008BB010008BB010008BB01000840
:1000B000BB010008B53F0008B93F0008BB010008BC
:1000C000BB010008BB010008BB010008BB01000820
:1000D000BB010008675400086B5400086F54000807
:1000E000BB010008BB010008BB010008BB01000800
:1000F000BB010008BB010008BB010008BB010008F0
:10010000BB010008BB010008BB010008BB010008DF
:100110005F54000863540008BB010008BD3F00089D
:10012000BB010008BB010008BB010008BB010008BF
:10013000BB010008BB010008BB010008BB010008AF
:10014000BB010008BB010008BB010008C93300085F
:10015000BB010008BB010008BB0100087354000884
:10016000BB010008BB010008BB010008BB0100087F
:10017000BB010008BB010008BB010008BB0100086F
:10018000BB010008BB010008DFF810D000F04CF8FC
:100190000048004779750008AFF3008070350020F3
:1001A0000648804706480047FEE7FEE7FEE7FEE711
:1001B000FEE7FEE7FEE7FEE7FEE7FEE78D3E00080E
:1001C0008901000840EA01039B0703D009E008C940
:1001D000121F08C0042AFAD203E011F8013B00F80C
:1001E000013B521EF9D27047D2B201E000F8012B58
:1001F000491EFBD270470022F6E710B513460A46A7
:1002000004461946FFF7F0FF204610BD30B50446FE
:100210000020034600E05B1C934203D2E05CCD5C0F
:10022000401BF8D030BD0000064C074D06E0E068EA
:1002300040F0010394E8070098471034AC42F6D32D
:10024000FFF7A6FF148A0008348A000870B58C18DE
:1002500010F8015B15F0070301D110F8013B2A11DA
:1002600006D110F8012B03E010F8016B01F8016BC7
:100270005B1EF9D12B0705D40023521E0DD401F8C3
:10028000013BFAE710F8013BCB1A921C03E013F88C
:10029000015B01F8015B521EF9D5A142D8D30020C1
:1002A00070BD000070B504460D46104884420AD067
:1002B0000F48844207D00F48844204D040F28B118B
:1002C0000D4806F081FC35B1012D04D04FF4C67104
:1002D000094806F079FC25B1A06840F00100A06053
:1002E00070BDA06820F00100A06070BD002001403A
:1002F0000021014000220140E487000810B50446B7
:10030000216800291CD001291AD0022918D00529FA
:1003100016D0062914D0072912D0092910D0112986
:100320000ED012290CD015290AD0162908D0172969
:1003300006D0192904D04FF4A971324806F044FCC4
:10034000606868B1B0F5803F0AD0B0F5003F07D0D3
:10035000B0F5403F04D040F253112A4806F034FC77
:10036000A06868B1B0F5804F0AD0B0F5004F07D053
:10037000B0F5404F04D04FF4AA71224806F024FC97
:10038000E16889B3B1F5807F2ED0B1F5007F2BD025
:10039000B1F5407F28D0B1F5806F25D0B1F5A06FC1
:1003A00022D0B1F5C06F1FD0B1F5E06F1CD0B1F510
:1003B000006F19D0B1F5106F16D0B1F5206F13D0C2
:1003C000B1F5306F10D0B1F5406F0DD0B1F5506F71
:1003D0000AD0B1F5606F07D0B1F5706F04D040F26C
:1003E0005511084806F0F0FB074B19680748014013
:1003F000D4E900021043D4E9022422431043084305
:10040000186010BDE487000804230140E030FCFFC1
:1004100070B504460D46104884420AD00F48844205
:1004200007D00F48844204D040F21B410D4806F02B
:10043000CBFB35B1012D04D040F21C41094806F038
:10044000C3FB25B1A06840F48070A06070BDA068B7
:1004500020F48070A06070BD0020014000210140A8
:1004600000220140E487000870B504460D4610489C
:1004700084420AD00F48844207D00F48844204D0F7
:1004800040F233410D4806F09FFB35B1012D04D0F9
:1004900040F23441094806F097FB25B1A06840F4CA
:1004A0000070A06070BDA06820F40070A06070BDF6
:1004B000002001400021014000220140E4870008A3
:1004C0002DE9F04105460C464F48854209D04F487A
:1004D000854206D04E48854203D0E9214D4806F0BA
:1004E00073FB4FF08076206877004FF0407848B17A
:1004F000B04207D0B84205D0404503D0EA21454874
:1005000006F062FB207928B1012803D0EB21414895
:1005100006F05AFB607928B1012803D0EC213D4850
:1005200006F052FBA06860B1B0F1805F09D0B0F175
:10053000005F06D0B0F1405F03D0ED21354806F0F2
:1005400043FBE2686AB3B2422BD0BA4229D042459B
:1005500027D0B2F1806F24D0B2F1A06F21D0B2F1D8
:10056000C06F1ED0B2F1E06F1BD0B2F1006F18D097
:10057000B2F1106F15D0B2F1206F12D0B2F1306F1E
:100580000FD0B2F1406F0CD0B2F1506F09D0B2F180
:10059000606F06D0B2F1706F03D0EE211D4806F0F7
:1005A00013FB206930B1B0F5006F03D0EF2119487B
:1005B00006F00AFB207D401E0F2803D9F0211548C4
:1005C00006F002FB6868144908402279216840EA75
:1005D000022001436960A86810490840D4E903215A
:1005E00011436379A26842EA430211430143A960BF
:1005F000E86A20F47001207D401EC0B241EA00503C
:10060000E862BDE8F08100000020014000210140C7
:1006100000220140E4870008FFFEFFFCFDF7FFC059
:100620002DE9F04105460C4617461E4646488542D0
:100630000AD04648854207D04548854204D04FF449
:100640003271444806F0C0FA44B3012C26D0022C83
:1006500024D0032C22D0042C20D0052C1ED0062C14
:100660001CD0072C1AD0082C18D0092C16D00A2C14
:1006700014D00B2C12D00C2C10D00D2C0ED00E2C14
:100680000CD00F2C0AD0102C08D0112C06D0122C14
:1006900004D040F2C9212F4806F096FA781E804611
:1006A0000F2804D940F2CA212A4806F08DFA96B1E3
:1006B000012E10D0022E0ED0032E0CD0042E0AD004
:1006C000052E08D0062E06D0072E04D040F2CB21EE
:1006D000204806F079FA0722092C0AD9E968A4F122
:1006E0000A0000EB40008240914386403143E960BC
:1006F00007E0296904EB440082409143864031437E
:1007000029611F21072F09D26A6B08EB88008140FD
:100710008A43844022436A63BDE8F0810D2F09D2E9
:100720002A6BFF1F07EB870081408A4384402243E6
:100730002A63F1E7EA6A0D3F07EB870081408A43AD
:1007400084402243EA62E7E70020014000210140A3
:1007500000220140E487000810B50446094884429D
:100760000AD00948844207D00848844204D040F2A5
:100770003F31074806F028FAA06840F08040A060AA
:1007800010BD000000200140002101400022014076
:10079000E487000800210160017141718160C1603E
:1007A00001610121017570471848FF2200F8CC2C27
:1007B000642120F8CA1C012120F8C81C80F866209A
:1007C0001421A0F868100021A0F86A10827101813C
:1007D000418182748182C1820276418381838277E2
:1007E0000184418480F86C20A0F86E10A0F870108D
:1007F00080F82624A0F82814A0F82A1480F83224BF
:10080000A0F83414A0F83614704700008E150020AC
:1008100070B400230024C5788A1F954255D1002268
:100820008D1E06E0865C3344DBB21C44E4B2521CED
:10083000D2B2AA42F6DB014411F8022C9A4244D10A
:1008400011F8011CA14240D10178AA293DD141787B
:10085000612901D0FF2938D18278202A24D00F2A9B
:1008600035D0052A3DD0062A45D0072A4FD0082A80
:1008700057D0032A5FD0042A67D0012A25D04D4DD6
:10088000E02A05F20C616AD00026002A71D0E12A24
:100890007ED0E22A19D10D46007928706B70AC70B9
:1008A00070BCFF2000F008BC434982880A80C288DF
:1008B0004A8002898A804289CA8082890A81C289E3
:1008C0004A81028A8A81408AC88170BC70473B494C
:1008D00002790A7042794A7082798A70C079C87048
:1008E000F3E70021364A43181B795354491CC9B217
:1008F0000929F8D3E9E7334902794A704279CA7085
:1009000082790A71C2794A71007A8871DDE7002123
:100910002D4A43181B795354491CC9B20629F8D3F0
:10092000D3E70021294A43181B795354491CC9B203
:100930000829F8D3C9E70021254A43181B795354E5
:10094000491CC9B20729F8D3BFE70021214A43183F
:100950001B795354491CC9B20929F8D3B5E700796A
:1009600005F20C6528706B70AC7070BCAF2000F0A5
:10097000A3BB95F80F1602799142A6D195F81016EF
:1009800042799142A1D195F811168079814200E017
:1009900003E09AD185F8006697E70179407901EB89
:1009A0000020A5F81406C5F8186670BC0A49FF2097
:1009B00002F0EABE741400206A1C0020DE01002050
:1009C000831C00208E010020450000204B000020E9
:1009D0003E0000207A1C0020881A0020F0B4294E26
:1009E000294B3179002901D1AA2802D0012905D04B
:1009F00008E0012131711870F0BC7047612807D000
:100A0000FF2805D0022907D00027032908D00FE0CE
:100A1000022131715870EFE7032131719870EBE7D3
:100A2000FA2805D204213171D870B070F770E3E76D
:100A3000144AD278541CE4B204290CD1B57855B1CB
:100A40006D1EE9B2B1701A44F47010710029D3D14F
:100A500005203071D0E7052903D0062907D037716A
:100A6000CAE706213171D118F4700871C4E73771F3
:100A700099180871521DD1B23170F0BC0248FFF7CD
:100A8000C7BE000024000020901A002001F0F8BB2F
:100A900010B51E4A00231E4992F80006012820D0F6
:100AA0004B718B71302000F01BFB322000F018FBE3
:100AB000332000F015FB342000F012FB402000F042
:100AC0000FFB412000F00CFBE02000F009FBE220CE
:100AD00000F006FB0D2000F003FBBDE8104006F01F
:100AE00029BE4879322802D2401C4871DAE74B719E
:100AF0008879401CC0B28871052803D2012082F891
:100B00004105CFE78B7182F80036CBE774140020E3
:100B10002400002070B52DED028B234D2888401C49
:100B200080B20A24B0FBF4F104FB110028800028F5
:100B300020D19FED1E8AB0EE480A00F03DFFB0EED6
:100B4000480A02F075FFB0EE480A02F087FAB0EEEC
:100B5000480A00F037F9B0EE480A05F041FC688811
:100B6000401C80B2B0FBF4F104FB1100688008B9AE
:100B700000F060FA01F0A4FB9FED0D8AB0EE480A88
:100B800002F04AFAB0EE480AFFF782FF0948C0783F
:100B900000B1012001F040FC02F098F9BDEC028B9D
:100BA000BDE8704006F070BB360000200AD7233C39
:100BB0006F12833A8E0100207CB5604C604D342862
:100BC00074D020DC302865D00EDCE8B30D280AD1C3
:100BD00000205C4D0B782E5C5C1C0C70D654401CC5
:100BE000C0B20428F6D37CBD322860D03328FAD1B5
:100BF00000200B78265C5D1C0D70D654401CC0B2E2
:100C00000628F6D37CBD402869D0412877D0E0285B
:100C100074D0E228F6D1B5F81406019008789DF852
:100C20000440431C0B70145408789DF80540431C85
:100C30000B701454D5F81806009008789DF8004001
:100C4000431C0B70145400E012E008789DF801403A
:100C5000431C0B70145408789DF80240431C0B7021
:100C6000145408789DF80340431C0B7014547CBD49
:100C700005F20C6508782C78431C0B701454087826
:100C80006C78431C0B7014540878AC78431C0B70C0
:100C900014547CBD002023185E7E0B785D1C0D7003
:100CA000D654401CC0B21728F5D37CBD0BE0002001
:100CB00023189E790B785D1C0D70D654401CC0B271
:100CC0000C28F5D3F1E7002023189E7C0B785D1CDF
:100CD0000D70D654401CC0B20728F5D3E5E70020BC
:100CE000194D2B1893F83A600B785C1C0C70D65495
:100CF000401CC0B21428F4D3D7E700E00BE000207A
:100D0000124D0B782E5C5C1C0C70D654401CC0B28B
:100D10000E28F6D3C9E7087895F80146431C0B70F6
:100D2000145400202B1893F802660B785C1C0C708E
:100D3000D654401CC0B20A28F4D3B6E77C1D00206C
:100D4000741400203A000020362C00205C1C002087
:100D500010B500F0FBFF642002F09FFA01F022FBC7
:100D600001F0BCFA00F064FC00F0BEFC642002F06C
:100D700094FA4FF4613000F0FFFF4FF4E134204665
:100D800001F074F8204601F009F90D4C204601F0FD
:100D90009DF9204601F002FA642002F07EFA00F08C
:100DA00001FE00F0B9FB642002F077FAFFF7FCFCCB
:100DB0004FF4487002F071FA00F0D1FF012010BD2D
:100DC00020A1070038B51E4B1E4C012193ED000AEF
:100DD000002210EE105AA3F17000F7EE000AA542AF
:100DE00005DA30EE200A83ED000A817000E082709F
:100DF00093ED010A10EE105AA54206DA30EE200AF1
:100E000083ED010A8DF8001001E08DF8002093EDCC
:100E1000020A10EE105AA54206DA30EE200A83EDDF
:100E2000020A8DF8011001E08DF801209DF80030D4
:100E300023B19DF801300BB1C17038BDC27038BD0F
:100E4000102C00200000FA4370B500230024C57860
:100E50008A1F95424CD100228D1E06E0865C3344E9
:100E6000DBB21C44E4B2521CD2B2AA42F6DB01440B
:100E700011F8022C9A423BD111F8011CA14237D142
:100E800082783E499FED3E0A01F17003512A30D02D
:100E9000342A5CD0012A63D0042A29D1B0F9042075
:100EA00000EE102AF8EEC00A9FED360A60EE800AC6
:100EB000C1ED080AB0F9062000EE902AF8EEE00A2B
:100EC00060EE800AC1ED090AB0F9082000EE902A10
:100ED000F8EEE00A60EE800AC1ED0A0AB0F90A00F5
:100EE00000EE900AF8EEE00A20EE800A81ED0B0A8F
:100EF00070BD0279A2B1012A1BD0022AF8D1427931
:100F00008A73C2880A8202894A8242898A828289D5
:100F1000CA82C2890A83028A4A83807C087170BDB2
:100F200042794A7182798A71C279CA71007A0871EC
:100F300070BD42790A72C2884A8102898A81807AA8
:100F4000087183ED010A0878401C087070BDD0F864
:100F50000700C86183ED020A4878401C487070BDE4
:100F600082880A86C2884A8602898A864289CA8617
:100F700082890A87C089488770BD0000A02B0020A5
:100F80000000000017B7D138F0B4284E284BB178D4
:100F9000002901D1AA2802D0012905D008E00121A9
:100FA000B1701870F0BC7047612807D0FF2805D0D9
:100FB000022907D00027032908D00FE00221B170D1
:100FC0005870EFE70321B1709870EBE7FA2805D26B
:100FD0000421B170D87030707770E3E7134A52780B
:100FE000541CE4B204290CD1357855B16D1EE9B218
:100FF00031701A44747010710029D3D10520B0707B
:10100000D0E7052903D0062907D0B770CAE7062123
:10101000B170D11874700871C4E7B770991808716D
:10102000F0BC521DD1B20248FFF70EBF06020020ED
:10103000DC2B002010B501F085F9DFED0D0A0D491C
:1010400020EE200ABCEEC00A10EE100A80B2088022
:10105000B0F5617F0BD206F095F8074900200880B3
:1010600048808880C880BDE8104001F0C9BA10BD32
:101070000000C8423A0000206A1C0020FEE7000081
:1010800010B50C4A012803D002280AD0002010BD58
:101090000121104601F062FC08B1002010BD0120C2
:1010A00010BD0221104601F059FC08B1002010BD0E
:1010B000012010BD00040240024908700120487060
:1010C0007047000074140020044981F84005012095
:1010D00081F8410581F80006704700007414002073
:1010E0000C4900EB400201EB42014B88002B08D079
:1010F0008A889A4202D2521C8A8002E001228A80A7
:101100004A704A78002A03D000224A7001F0B4BA2B
:10111000704700007414002070B504460D462B483B
:1011200084423FD02948183084423BD02748303091
:10113000844237D025484830844233D02348603039
:1011400084422FD02148783084422BD01F489030E1
:10115000844227D01D48A830844223D01C488442B2
:1011600020D01B48183084421CD0194830308442AB
:1011700018D017484830844214D015486030844253
:1011800010D01348783084420CD0114890308442FB
:1011900008D00F48A830844204D040F2D9110D483D
:1011A00005F012FD35B1012D04D04FF4ED71094861
:1011B00005F00AFD25B1206840F00100206070BDF7
:1011C000206820F00100206070BD00001060024027
:1011D000106402403488000870B504460025244895
:1011E00084423FD02248183084423BD020483030DF
:1011F000844237D01E484830844233D01C48603087
:1012000084422FD01A48783084422BD0184890302E
:10121000844227D01648A830844223D015488442FF
:1012200020D01448183084421CD0124830308442F8
:1012300018D010484830844214D00E4860308442A0
:1012400010D00C48783084420CD00A489030844248
:1012500008D00848A830844204D040F2A2310648A1
:1012600005F0B2FC2068C00700D00125284670BDFB
:1012700010600240106402403488000870B50546D2
:101280000C468D4885423FD08B48183085423BD074
:1012900089483030854237D087484830854233D03E
:1012A0008548603085422FD08348783085422BD0E6
:1012B00081489030854227D07F48A830854223D08E
:1012C0007E48854220D07D48183085421CD07B481E
:1012D0003030854218D079484830854214D077485C
:1012E0006030854210D07548783085420CD0734804
:1012F0009030854208D07148A830854204D04FF420
:101300009E716F4805F060FC2068C8B1B0F1007FA5
:1013100016D0B0F1806F13D0B0F1C06F10D0B0F123
:10132000006F0DD0B0F1206F0AD0B0F1406F07D040
:10133000B0F1606F04D040F23D11614805F044FC0B
:10134000E06840B1402806D0802804D04FF49F7157
:101350005B4805F039FC20694FF6FF71401E88425A
:1013600004D340F23F11564805F02EFC6069B0F5F9
:10137000007F05D020B14FF4A071514805F024FC46
:10138000A069B0F5806F05D020B140F241114C4802
:1013900005F01AFCE06950B1B0F5006F07D0B0F568
:1013A000805F04D04FF4A171454805F00DFC206A20
:1013B00050B1B0F5005F07D0B0F5804F04D040F2D7
:1013C00043113F4805F000FC606A38B1B0F5807FFA
:1013D00004D04FF4A2713A4805F0F6FBA06A68B158
:1013E000B0F5803F0AD0B0F5003F07D0B0F5403FE0
:1013F00004D040F24511324805F0E6FBE06A30B116
:10140000042804D04FF4A3712D4805F0DDFB206BB8
:1014100050B1012808D0022806D0032804D040F299
:101420004711274805F0D0FB606B68B1B0F5000F9D
:101430000AD0B0F1807F07D0B0F1C07F04D04FF464
:10144000A4711F4805F0C0FBA06B68B1B0F5001F88
:101450000AD0B0F5800F07D0B0F5C00F04D040F22D
:101460004911174805F0B0FB296816480140E268A9
:1014700020681043D4E905231A431043E26910435E
:10148000226A1043626A1043A26A1043626B1043DF
:10149000A26B104308432860686920F00700D4E974
:1014A0000B12114301436961206968606068A8609C
:1014B000A068E86070BD0000106002401064024047
:1014C000348800083F801CF0002101604160816089
:1014D000C160016141618161C161016241628162FA
:1014E000C1620163416381637047000004280CD22C
:1014F000064A074B21B132F81010184601F0DABA4B
:1015000032F81010184601F095BA70479487000819
:10151000000C02407047000010B58CB06846FFF721
:1015200039F90121042002F05DF90121080202F0DD
:10153000E7F905F031FE03208DF82C0020200A90F9
:1015400000248DF82F400AA9184801F0D3F8089418
:1015500006944FF480300790099406A8FEF7CEFE5B
:1015600000948DF8044001208DF805000294049445
:101570008DF814000E4C69462046FEF7A1FF0723A4
:1015800001220F212046FFF74BF801212046FEF7EC
:101590006BFF01212046FEF785FE01212046FEF764
:1015A00037FF2046FFF7D8F80CB010BD0008024006
:1015B000002001401CB5684601F0BCFA0121022060
:1015C00002F010F900208DF8040001218DF80710B9
:1015D0008DF8060002208DF8050003200090694672
:1015E000014801F087F81CBD000402407CB5684644
:1015F00001F0A0FA0121082002F0F4F801208DF892
:10160000040002208DF8070000218DF806108DF8E7
:1016100005004FF470440094044D6946284601F0DB
:1016200069F82146284601F005FA7CBD000C02400D
:1016300010B5FFF7BFFFBDE81040FFF7D7BF0000B0
:10164000B0F900204FF47A6101EB8203104A136471
:10165000B0F9023001EB8303D363B0F9043001EB3E
:1016600083039363B0F9063001EB83015163094AA8
:10167000B0F908101160121FB0F90A101160064A83
:10168000B0F90C101160111FB0F90E00086070471E
:1016900000000140400C00404004014030B5114BB7
:1016A00040F6C4140E4A1978A04201D903290DD876
:1016B0000A290BD0A0F22D1440F68B25AC4204D29F
:1016C00002EB41025080491C197030BD0020187097
:1016D00032F84E0F401C10800120907030BD000089
:1016E000362C00200C0200202DE9F04F8BB0A54DC8
:1016F00001A801F01FFA08A803F0A8FE03A803F050
:10170000EBFC0121082002F0B3F80121022002F0D5
:10171000F7F80121084602F0F3F80121152002F044
:1017200061F80C2001904FF002088DF808804FF00E
:1017300003098DF8099000248DF80A4001268DF8E0
:101740000B60914F01A9384600F0D4FF02221146E8
:10175000384601F075F802220321384601F070F88E
:10176000DFF828A2DAF800004008B0FBF5F0401ED0
:1017700042F2107BCDF824B0ADF82000ADF828403F
:10178000ADF82240824F08A9384603F0C7FD60201B
:10179000ADF80C00ADF81840ADF80E60059403A943
:1017A000384603F0F7FA0821384603F0A5FBADF8F8
:1017B0000E60059403A9384603F0D2FB0821384691
:1017C00003F052FC0121384602F00CFC012138469E
:1017D00002F03AFD4FF4D44001908DF808808DF866
:1017E00009908DF80A408DF80B606A4F01A93846C0
:1017F00000F080FF01220921384601F021F8012282
:101800000B21384601F01CF801220D21384601F069
:1018100017F801220E21384601F012F8DAF800001C
:10182000B0FBF5F0401ECDF824B0ADF82000ADF8C7
:101830002840ADF822408DF82A4008A9564803F008
:101840006DFD6020ADF80C00ADF81040ADF818400B
:101850000820ADF81A004001ADF81C00ADF81E409C
:10186000ADF80E604FF47A67059703A94A4803F074
:101870007FF80821484803F03DF9059703A9464839
:1018800003F08AF90821444803F042FA059703A9B6
:10189000414803F07FFA08213F4803F02DFB0597EC
:1018A00003A93D4803F05CFB08213B4803F0DCFB47
:1018B0000121394802F02AFD0121374802F092FB4C
:1018C0000121354802F0C0FC4FF4407001908DF8C2
:1018D00008808DF809908DF80A408DF80B602F4E26
:1018E00001A9304600F006FF03220821304600F02F
:1018F000A7FF03220921304600F0A2FFDAF800001A
:10190000B0FBF5F0401ECDF824B0ADF82000ADF8E6
:101910002840ADF822408DF82A40214D08A92846DC
:1019200003F0FCFC6021ADF80C10ADF81040ADF8F0
:1019300018400821ADF81A104901ADF81C10ADF897
:101940001E40059403A9284603F024FA08211248F2
:1019500003F0D2FA059403A9284603F001FB0821FD
:101960000D4803F081FB0121284602F0CFFC012144
:10197000284602F037FB0121284602F065FC0BB037
:10198000BDE8F08F00093D0000000240000000208B
:10199000000C00400010024000000140000802401E
:1019A0000004014010B500F069F8024801210170FF
:1019B000417010BD6E2C002070B52DED020B6846F5
:1019C00005F038FE294A0126294C92F838000025F6
:1019D00060B12671002002EB40014D87401CC0B26F
:1019E0000A28F8D3207982F839007CBD10780128C4
:1019F00002D002280AD025E0002002EB40014B88EB
:101A00004B87401CC0B20A28F7D31BE00020DFED53
:101A1000190ADFED191A02EB4001B1F91430A3F5F0
:101A2000806300EE103AB8EEC01AB0EE610A01EE23
:101A3000200ABDEEC00A10EE103A4B87401CC0B21F
:101A40000A28E8D3B2F94200A0F2B141C72908D36D
:101A5000A0F24160C72804D3B2F94800B0F5E16FA5
:101A600001DD2671BEE72571BCE70000362C0020A1
:101A70000C0200202FDD243F0080BB4470B586B0EF
:101A800004A801F057F801A802F0F2FE012102209B
:101A900001F0EEFE0121042001F0A4FE1D208DF8CE
:101AA000000002248DF8014001258DF802508DF8C8
:101AB0000350684601F00AFC802004908DF8144021
:101AC00003208DF8150000268DF816608DF817405C
:101AD000144C04A9204600F00DFE022207212046E6
:101AE00000F0AEFE1049532008800420ADF8040039
:101AF0000A20ADF80600ADF80850ADF80A60ADF860
:101B00000C60094C01A9283C204602F0CDFD0121C2
:101B1000204602F099FB01220421204602F0B0FE8B
:101B200006B070BD000802402804004070B588B0BF
:101B300001A800F0FFFF0121202001F0E1FE0121BA
:101B4000042001F04FFE47208DF80C0004258DF88D
:101B50000D5001248DF80E408DF80F4003A801F0C0
:101B6000B5FB1A4E08220721304600F069FE80209E
:101B7000019002218DF808108DF809108DF80A40A7
:101B800000248DF80B4001A9304600F0B3FD104849
:101B90000490ADF81440E802ADF81600C010ADF89E
:101BA0001800ADF81C40ADF81A500A4C04A92046A4
:101BB00003F0C6FE012240F22551204603F042FE0A
:101BC0000121204603F004FD08B070BD000802406A
:101BD000A086010000140140F8B5054658A0006831
:101BE0000090584C6068206001F0A4F860602168A3
:101BF0000023401A40F6C411083C884200D96370A3
:101C00006178481CC2B2504862704554192A7CD190
:101C10001821617001780F2978D1017E21B1A57852
:101C20001DF80520914271D163708278417802F0ED
:101C3000070341EA032344491A318B82C3789D0686
:101C40006D0D45EAD202CA8242790679D5076D0D3B
:101C500045EA860545EA93130B8383791D076D0DCD
:101C600045EA52024A83C27955066D0D45EA1313BF
:101C70008B83437A067A9D076D0D45EA460545EA52
:101C8000D212CA83827AD5066D0D45EA93030B847E
:101C9000C37ADB0043EA52124A84427B037B02F0A0
:101CA000070543EA05238B84837B9D066D0D45EA7A
:101CB000D202CA84027CC67BD5076D0D45EA860533
:101CC00045EA93130B85437C1D076D0D45EA5202CF
:101CD0004A85827C55066D0D45EA13138B85037D7D
:101CE000C67C9D076D0D45EA460545EAD212CA85B8
:101CF000427DD5066D0D45EA93030B86837DDB009F
:101D000043EA52124A86C07D01E00FE00FE081F8FD
:101D10003400000705D431F84E0F401C0880022023
:101D20008870A078401C00F00300A070F8BD00216E
:101D3000421852784254491CC9B21829F8D3F8BD48
:101D400004142434140200201C2C002010B54FF47D
:101D5000806001F009FBBDE8104002F075B810B5D5
:101D60004FF47A7002F0A0F902F0F2FD0121BDE813
:101D70001040202001F07CBD2DE9F04389B0814660
:101D800005A803F0B3FE0121102001F0B9FD0121E7
:101D9000084601F027FD25208DF8080003208DF866
:101DA000090001258DF80A508DF80B5002A801F0AA
:101DB0008DFADFF8B08007220921404600F040FD8F
:101DC00007220A21404600F03BFD6F0200970226E1
:101DD0008DF804608DF8056000248DF806408DF8BC
:101DE00007506946404600F085FCA80200908DF837
:101DF00004608DF805608DF806508DF8074069463F
:101E0000404600F077FC184D284603F01DFCCDF845
:101E10001490ADF81840ADF81A40ADF81C40ADF87C
:101E200020400C20ADF81E00ADF80C40ADF80E407F
:101E3000ADF81070ADF8124005A9284603F080FDFA
:101E400003A9284603F070FB012240F225512846E1
:101E500003F0F8FC0121284603F0BAFB09B0BDE805
:101E6000F083000000000240001001402DE9F04125
:101E70008AB0804606A803F039FE0121480401F02B
:101E8000F7FC0121082001F0ADFC26208DF80C00A4
:101E900004208DF80D0001258DF80E508DF80F509F
:101EA00003A801F013FA2A4F07220521384600F053
:101EB000C7FC07220621384600F0C2FC2020019012
:101EC00002268DF808608DF8096000248DF80A401C
:101ED0008DF80B5001A9384600F00CFC4020019011
:101EE0008DF808608DF809608DF80A508DF80B4068
:101EF00001A9384600F0FEFBCDF81880ADF81C4073
:101F0000ADF81E40ADF82040ADF824400C20ADF8EF
:101F10002200ADF81040ADF812406802ADF8140090
:101F2000ADF816400B4C06A9204603F009FD04A9A4
:101F3000204603F0F9FA012240F22551204603F031
:101F400081FC0121204603F043FB0AB0BDE8F0818B
:101F5000000C024000440040F0B400220C4C0D4E36
:101F600006E06379875C5D1C6571F754521CD2B240
:101F70008A42F6D308480088000607D4F0BC064819
:101F8000012240F227710C3803F05CBCF0BC7047B2
:101F9000F0010020F62500200C4400402DE9F0411E
:101FA0008AB0804606A803F0A1FD0121880401F053
:101FB0005FFC0121022001F015FC27208DF80C00A8
:101FC00002258DF80D5000248DF80E4001268DF865
:101FD0000F6003A801F07AF9294F07220A21384639
:101FE00000F02EFC07220B21384600F029FC680285
:101FF00001908DF808508DF809508DF80A408DF841
:102000000B6001A9384600F075FBA80201908DF81D
:1020100008508DF809508DF80A608DF80B4001A921
:10202000384600F067FBCDF81880ADF81C40ADF8DD
:102030001E40ADF82040ADF824400C20ADF8220041
:10204000ADF81040ADF812402802ADF81400ADF81C
:1020500016400C4C06A9204603F072FC04A9204649
:1020600003F062FA012240F22551204603F0EAFB18
:102070000121204603F0ACFA0AB0BDE8F08100006F
:102080000004024000480040F0B400220C4C0D4E09
:1020900006E0637A875C5D1C6572F754521CD2B20D
:1020A0008A42F6D308480088000607D4F0BC0648E8
:1020B000012240F227710C3803F0C4BBF0BC70471A
:1020C000F00100205A2700200C4800402DE9F04183
:1020D00088B0804604A803F009FD0121C80401F07E
:1020E000C7FB0121084601F07DFB34208DF80C0070
:1020F00003208DF80D0001258DF80E508DF80F503E
:1021000003A801F0E3F8234F08220021384600F02D
:1021100097FB08220121384600F092FB0195022628
:102120008DF808608DF8096000248DF80A408DF85C
:102130000B5001A9384600F0DDFA01968DF80860D1
:102140008DF809608DF80A508DF80B4001A93846CA
:1021500000F0D0FACDF81080ADF81440ADF816407C
:10216000ADF81840ADF81C400C20ADF81A000A4C30
:1021700004A9204603F0E4FB012240F22551204649
:1021800003F060FB0121204603F022FA08B0BDE80D
:10219000F081000000000240004C00402DE9F043B7
:1021A00087B0814603A803F0A1FC0121080501F0D6
:1021B0005FFB0121042001F015FB0121082001F043
:1021C00011FB35208DF8080003208DF8090000244C
:1021D0008DF80A4001268DF80B6002A801F076F810
:1021E000244F08220C21384600F02AFBDFF88880B3
:1021F00008220221404600F023FB30030090022514
:102200008DF804508DF805508DF806408DF8076064
:102210006946384600F06EFA042000908DF80450AC
:102220008DF805508DF806608DF8074069464046E8
:1022300000F060FACDF80C90ADF81040ADF8124007
:10224000ADF81440ADF818400C20ADF816000B4C5A
:1022500003A9204603F074FB012240F225512046D9
:1022600003F0F0FA0121204603F0B2F907B0BDE80F
:10227000F083000000080240000C024000500040C3
:10228000F0B400220B4C0C4E06E0637C875C5D1CB6
:102290006574F754521CD2B28A42F6D3074881893A
:1022A000090605D4F0BC012240F2277103F0CABA36
:1022B000F0BC7047F0010020222A002000500040AE
:1022C00010B504F037FD04F05FFD04F087FD04F065
:1022D000AFFDBDE8104004F0D5BD00007CB56846F8
:1022E00000F028FC0121042001F07CFA01208DF887
:1022F00004008DF8070000248DF8064002208DF8B8
:102300000500402000900D4D6946284600F0F2F986
:102310004021284600F08EFB0020094A00EB4001D6
:10232000545411444C708C70401CC0B20828F5D332
:102330000821034804F068F97CBD00000008024051
:10234000862B00209FED110A00201149DFED110AB4
:1023500031F8102001EE102AB8EE411A01EE200AE1
:10236000401CC0B23228F3D3DFED0B0A20EE200A66
:10237000DFED0A0A20EE200AF2EE060A20EE200A1D
:10238000DFED070A20EE200A704700000000000081
:102390002E2400200AD7A33C0000803900404E457F
:1023A0006F12833A7CB5684600F0C4FB012110200F
:1023B00001F018FA01248DF804408DF80740002040
:1023C0008DF8060002258DF8055007200090114E6B
:1023D0006946304600F08EF98DF804408DF80640CD
:1023E0008DF80550802100916946304600F082F951
:1023F0000221304600F01EFB0121304600F01AFB9E
:102400000421304600F016FB8021304600F012FB1C
:102410007CBD0000001002403B490A8800EE102AF3
:10242000A1F11E02F8EE400A9FED380A60EE800A24
:10243000FDEEE00A10EE903A13804B8800EE903AE1
:10244000F8EE600A60EE800AFDEEE00A10EE903AC7
:1024500053808B8800EE903AF8EE600A60EE800AB6
:10246000FDEEE00A10EE903A9380C98800EE901AD3
:10247000F8EE600A20EE800ABDEEC00A10EE101AD7
:10248000D18023490B8813814B8853818B8893819A
:10249000C988D1811F494B78002B09D0A8B10020F1
:1024A0004FF47A7332F91010002904DC002105E0A2
:1024B0000120487023E0994200DD194622F81010EF
:1024C000401CC0B20428EDD307E00020002122F810
:1024D0001010401CC0B20428F9D3042042F210733B
:1024E00032F91010002901DC002102E0994200DDE0
:1024F000194622F81010401CC0B20828F0D3024838
:102500001E38FFF79DB800006A1C0020CDCCCC3DE2
:10251000C40100202E00002010B5802000F01AF821
:10252000002804D0BDE81040802000F001B810BDA4
:1025300010B50446E00D00D124B940F21D11034846
:1025400004F042FB0248046010BD000084880008CB
:10255000143C014070B504460025012C3FD0022CEC
:102560003DD0042C3BD0082C39D0102C37D0202C57
:1025700035D0402C33D0802C31D0B4F5807F2ED094
:10258000B4F5007F2BD0B4F5806F28D0B4F5006F80
:1025900025D0B4F5805F22D0B4F5005F1FD0B4F52C
:1025A000804F1CD0B4F5004F19D0B4F5803F16D041
:1025B000B4F5003F13D0B4F5802F10D0B4F5002F40
:1025C0000DD0B4F5801F0AD0B4F5001F07D0B4F5C4
:1025D000800F04D04FF48371074804F0F5FA0748E0
:1025E00000682040054914310968214201D000B13A
:1025F0000125284670BD000084880008003C014089
:1026000010B50B48002181700A4890F80026002A76
:1026100001D0002010BD00F2016010220270417054
:10262000022181700449FF20FEF74EFD012010BDFC
:102630008E01002074140020751A002010B50B487C
:10264000012181700A4890F80026002A01D000205C
:1026500010BD00F2016010220270002242708170F1
:102660000449FF20FEF730FD012010BD8E0100203F
:1026700074140020751A0020F8B506460022AA231B
:102680001B4D012000902B7008786870AE700420FC
:102690000090EA702A4669463046FEF78DFA9DF8AA
:1026A0000040201FE87000220023002106E0685C43
:1026B0001044C2B29818C3B2491CC9B2A142F6D3A1
:1026C000601CC0B22A55411CC9B200912B54084865
:1026D000343090F8004634B1E02E04D100F20F609F
:1026E0000670427083700248FEF7D0F9F8BD000012
:1026F000401400202DE9F05F04460D4600264648B0
:1027000084421BD04548844218D04548844215D0A5
:102710004448844212D0444884420FD04348844203
:102720000CD04348844209D04248844206D04248F3
:10273000844203D0BB21414804F046FA286818B906
:10274000BC213E4804F040FA287948B1012807D05E
:10275000022805D0032803D0BD21384804F034FAFC
:10276000E87938B1012805D0022803D0BE213348CA
:1027700004F02AFA4FF0010A4FF0030B0AFA06F9A7
:10278000286800EA0900484541D120684FEA460818
:102790000BFA08F7B84320602879216800FA08F09E
:1027A000084320602879012801D0022826D16879C1
:1027B00048B1012807D0022805D0032803D0D02132
:1027C0001E4804F001FAA068B843A0606879A168C7
:1027D00000FA08F00843A060A87928B1012803D0C6
:1027E000D721164804F0F0F9606820EA090060601B
:1027F0006168A879B04080B201436160E068B84385
:10280000E060E879E16800FA08F00843E060761CCF
:10281000102EB3D3BDE8F09F000002400004024038
:1028200000080240000C0240001002400014024068
:1028300000180240001C024000200240D48800081A
:1028400070B506460C4615463A4886421CD03A48B2
:10285000864219D03948864216D03948864213D06C
:102860003848864210D0384886420DD037488642D4
:102870000AD03748864207D03648864204D040F214
:102880001721354804F0A0F914B3012C20D0022CF4
:102890001ED0032C1CD0042C1AD0052C18D0062CCA
:1028A00016D0072C14D0082C12D0092C10D00A2CCA
:1028B0000ED00B2C0CD00C2C0AD00D2C08D00E2CCA
:1028C00006D00F2C04D04FF40671234804F07CF995
:1028D00005B3092D1ED0012D1CD0022D1AD0032DB9
:1028E00018D0042D16D0052D14D0062D12D0072D8A
:1028F00010D0082D0ED00A2D0CD00B2D0AD00C2D87
:1029000008D00D2D06D00F2D04D040F21921124809
:1029100004F05AF96007C10E8D40E00806EB800014
:10292000026A0F238B409A430262016A29430162C3
:1029300070BD000000000240000402400008024098
:10294000000C024000100240001402400018024037
:10295000001C024000200240D488000870B50546E3
:102960000C460026294885421CD02948854219D0AA
:102970002848854216D02848854213D027488542EA
:1029800010D0274885420DD0264885420AD02648D7
:10299000854207D02548854204D04FF498712448D9
:1029A00004F012F9012C2AD0022C28D0042C26D0B5
:1029B000082C24D0102C22D0202C20D0402C1ED02B
:1029C000802C1CD0B4F5807F19D0B4F5007F16D0D0
:1029D000B4F5806F13D0B4F5006F10D0B4F5805FFC
:1029E0000DD0B4F5005F0AD0B4F5804F07D0B4F530
:1029F000004F04D040F231110D4804F0E5F8286989
:102A0000204200D00126304670BD00000000024088
:102A10000004024000080240000C02400010024086
:102A20000014024000180240001C02400020024036
:102A3000D488000870B504460D46144884421CD062
:102A40001348844219D01348844216D01248844255
:102A500013D01248844210D0114884420DD011483E
:102A600084420AD01048844207D01048844204D0DF
:102A70004FF4C9710E4804F0A7F825B940F293113C
:102A80000B4804F0A1F8658370BD0000000002400F
:102A90000004024000080240000C02400010024006
:102AA0000014024000180240001C024000200240B6
:102AB000D488000870B504460D46144884421CD0E2
:102AC0001348844219D01348844216D012488442D5
:102AD00013D01248844210D0114884420DD01148BE
:102AE00084420AD01048844207D01048844204D05F
:102AF00040F27F110E4804F067F825B94FF4C07119
:102B00000B4804F061F8258370BD0000000002400E
:102B10000004024000080240000C02400010024085
:102B20000014024000180240001C02400020024035
:102B3000D48800084FF6FF710160002101714171D6
:102B40008171C171704700002DE9F041224D234E83
:102B500000246878002808D030786979884204D049
:102B60001FA1022000F066FB6C7068782449254F95
:102B70004FF48773012280B1234E95F804C070781A
:102B8000604508D02871F069C1F815008C74A1F86F
:102B9000133087F83921BDE8F0816889401C6881CD
:102BA000307895F805C060450AD068718C74A1F83A
:102BB0001330D6F80100C1F8150087F839216C816F
:102BC00068896428E7D96A706C81BDE8F0410FA17B
:102BD000012000F02FBB00007A010020B801002086
:102BE000494E464F3A2073776974636820746F20AA
:102BF00064697374616E63652064617461000000D0
:102C00007C1D002074140020A02B00205741524E40
:102C10003A2064697374616E636520646174612035
:102C20006C6F73742C2073776974636820746F20E1
:102C30004F4600002DE9F041234C244D002620781A
:102C4000002808D02878E178884204D020A102200A
:102C500000F0F0FA26702078254B26490122B0B109
:102C6000254DA6782878B0420FD0A0702C7A234842
:102C700034B1EC7824B16C890C80AC894C8001E0D3
:102C800008804880888083F83321BDE8F08120895E
:102C9000401C20812878E778B8420AD0E07035F8E7
:102CA000010F088068884880A888888083F83321CD
:102CB000268120896428E8D922702681BDE8F04168
:102CC0000FA1012000F0B6BA7A010020BD0100205A
:102CD000494E464F3A2073776974636820746F20B9
:102CE00076656C6F636974792064617461000000BB
:102CF000741400207C1D0020A02B00200080FFFF0A
:102D00005741524E3A2076656C6F6369747920643E
:102D1000617461206C6F73742C20737769746368BD
:102D200020746F204F460000014800687047000083
:102D3000E8010020F0B50D4800254FF0E02306C85B
:102D400001EB4100C0EBC11458699E69801B4FF430
:102D50007A7670435E69B0FBF6F000EBC40081EA5E
:102D6000010685EA02073E43EED1F0BDE8010020EE
:102D70000348002141638163C163016400F014FBD7
:102D80000000014010B50A4890F80016002901D053
:102D9000002010BD00F2016001210170002141708E
:102DA000032181700349FF20FEF78EF9012010BD39
:102DB00074140020751A002010B50F490F4A887846
:102DC0001071C8785071D41E091D2078C0EBC00066
:102DD00000EB400002EB4000801D2822FDF7F2F9D5
:102DE0002078401CC0B22070042803D100F008F8FD
:102DF0000020207010BD00004C1D0020CB000020E2
:102E00000C49AA20087055204870AB208870042017
:102E1000C870002081F8AE0091F8AE200B5C1A4417
:102E200081F8AE20401CAE28F6DBAF21014803F04C
:102E300027BF0000CB00002070B504461C48007876
:102E400000280CD01B4D1C4AA87808B9542C03D07C
:102E50000026012804D005E00120A870147070BD80
:102E60002C2C05D0022808D0032811D0AE7070BDDC
:102E70000220A8706E70547070BD6878411CC9B291
:102E80001044697084702C29F6D10320A87070BD9D
:102E90002E21094803F0A2FEA04202D1FFF78CFFC9
:102EA00003E006A1012000F0C5F9AE7070BD00007E
:102EB000A0010020C80000204C1D00207261646148
:102EC0007220637263206572726F7200F0B4002129
:102ED0000F4E01250027331D745633F81120A242EE
:102EE00004DA05FA01F40443A0B202E005FA01F4A1
:102EF000A043521C92B223F81120142A01D323F8C4
:102F00001170491CC9B20429E6D3F0BC00F002B824
:102F1000D20100200E49C3074FF0020201D00A83FC
:102F200000E04A8383074FF0010201D50A8300E0E5
:102F30004A8343074FF0040201D50A8300E04A8325
:102F400002074FF0800001D548837047088370471F
:102F5000001002402DE9F0411A48C07800281CD129
:102F6000194B1948174DB3F93C10AD1FB0F940404B
:102F7000B3F93E2040F24C4601272878B3F93A30A5
:102F8000B4420CDAB1420ADAB24208DAB34206DAE3
:102F9000002802D1FFF7F6FE2F70BDE8F08140F265
:102FA0006C7C64450BDDB14209DAB24207DA634555
:102FB00005DD0028F1D100F055F92F70EDE7002074
:102FC0002870EAE78E010020362C002010B50E4A4A
:102FD0001178814215D00D4991F800360BB10020CF
:102FE00010BD0B4B1870107001F2016101220A70C4
:102FF0004A708A70C8700749FF20FEF765F8012003
:1030000010BD012010BD00008601002074140020B6
:103010008E010020751A002010B5FFF70BFEFFF798
:1030200093FD0A490A4A0878937998420CD0907126
:10303000084851F8012F02604A684260896881603F
:103040000549012081F82D0110BD0000B01E0020AF
:103050007A010020821D00207414002010B52DED8F
:10306000020B054890F83900002804D1684600F0AA
:1030700005F8FFF76FFF1CBD362C00202DE9F04747
:103080003A4B3B490126B3F940200024A2F279577C
:103090008D1EC72F02D24E706E7000E04C70B3F9D7
:1030A0003E30B3F5966F01DA4F78AFB30C706978A4
:1030B00001292FD12E49DFED2F0A091D40F26C792D
:1030C00091F803C0294940F24C48B1F93A60B1F98E
:1030D0003C702749891EBCF1000F89881FD0BCF1C4
:1030E000010F17D14E453FDD47453DDA43453BDAF9
:1030F000424539DAB1F5967F31D200EE101A90EDE3
:10310000001AB8EE400A01EE200ABCEEC00A10EE2A
:10311000100AA880BDE8F087FFE70E70C7E74E45AC
:103120001BDD474519DA434517DA424515DAB1F593
:103130007A7F0DD200EE101A90ED001AB8EE400A18
:1031400001EE200ABCEEC00A10EE100AA880E1E7EA
:10315000FFF774FAAC806C70DCE7AC80DAE7FFF75D
:103160004FFAAC806C70D5E7AC80D3E7362C0020EA
:103170008A01002000007A447047704770470000C1
:1031800010B51E4C2078401C207004F08DF8608033
:10319000A0F58070053804D001280BD002281AD180
:1031A00011E00121084603F001F915A1022000F009
:1031B00041F810E00121022003F0F8F813A10220E9
:1031C00000F038F807E00121032003F0EFF812A126
:1031D000022000F02FF81348007808B1022000E028
:1031E0000A202178884208D8002020700E49C8782B
:1031F00008B1002000E01420C87010BD5400002069
:103200004B4559315F53484F525400004B4559319B
:103210005F4C4F4E470000004B4559315F444F55BE
:10322000424C4500A0010020D201002070477047A9
:1032300003F0A4B910B50022084B05E08C5C9C5447
:10324000521CD2B2802A02D28C5C002CF6D1022809
:1032500000D900200249C8710A7210BD901B0020DD
:103260002400002010B50A4890F80016002901D06B
:10327000002010BD00F201600121017000214170A9
:10328000042181700349FF20FDF71EFF012010BDBE
:1032900074140020751A0020FEE730B504464FF480
:1032A0007A7502E0284600F004F8641E601CF9D12B
:1032B00030BD30B50546FFF73DFD0446FFF73AFD4A
:1032C000001BA842FAD330BD7047000070B5044619
:1032D0000F25E078002805D0012803D08721204859
:1032E00003F072FC6078102803D388211C4803F097
:1032F0006BFCA078102803D38921194803F064FCE3
:10330000E078012200B31748006800F4E060C0F5DF
:10331000E060C0F30720C0F10401C5406078884038
:10332000A178294001430801217801F1E02181F8C9
:103330000004207800F01F018A404009800000F15D
:10334000E020C0F8002170BD207800F01F018A4005
:103350004009800000F1E020C0F8802170BD00002D
:103360009C8700080CED00E010B50446B4F5E06F52
:103370000FD0B4F5C06F0CD0B4F5A06F09D0B4F580
:10338000806F06D0B4F5407F03D07321034803F06B
:103390001BFC034804430348046010BD9C870008DD
:1033A0000000FA050CED00E0BFF34F8F0448016800
:1033B000044A01F4E06111430160BFF34F8FFEE75F
:1033C0000CED00E00400FA052DE9F05F4FF0A04796
:1033D0007869BD6905407869C00778D1002D76D03D
:1033E000DFF8B8A2E80625D5B86920F01000B8616A
:1033F000386A00F00F02C0F34341022902D00629C7
:103400000FD013E0C0F30A1484B102EB82000AEB80
:103410008006A1B2306E03F071FD306E204430663C
:1034200004E0C0F30A119D4803F068FDB86940F05C
:103430001000B861DFF8689228034FF000083BD510
:103440000024A9F104000068D9F8001001400E0C16
:1034500030E0F0072CD0E0B2400100F1A040D0F8FD
:10346000080B8F490839D1F800B00BEA000B600156
:1034700000F1A040D0F8081BC0F8081B5FEACB7130
:1034800010D02CB304EB84010AEB8102D0F8100BAE
:10349000516EC0F31200091A9166C2F86480E0B25E
:1034A00004F0E2FD5FEA0B7002D57C4804F086FD73
:1034B0007608641C002ECCD168035CD500247848C3
:1034C000001F0068D9F8001001408EB251E0BFE043
:1034D000DAF86400524658B1D7F8101BC1F3120154
:1034E000411A9166C2F86480002004F0BDFDD9E75E
:1034F0006A4803F0F1FCD5E7F00738D0E0B268493C
:103500000C390A6866491831096800F00703D94088
:1035100001F0010142EAC111400100F1A040D0F8E0
:1035200008B90BEA010B600100F1A040D0F80819BE
:10353000C0F808195FEACB7113D0002C6FD004EBF0
:1035400084010AEB8102D0F810095169C0F312001E
:10355000091A9161C2F81480E0B240F0800004F0D2
:1035600075FD5FEA0B6002D5E0B203F0C7FD760897
:10357000641C002EC0D14B4CE8043DD5786940F462
:1035800080507861206820F001002060102003F056
:10359000EBFC03F0D1FC002062064FF67F33E8B36A
:1035A000410101F1A041C1F80029C1F8002B4101FE
:1035B00001F1A041C1F81089C1F80839C1F8108B98
:1035C000C1F8083B401CC0B20428E8D3D9F8000079
:1035D00040F00110C9F800003148092108380160A5
:1035E0000121001F0160C0212C48FCF704FE04F0FB
:1035F00055FD2A4803F070FCA8040ED5786940F404
:103600000050786103F0CAFC01462748006803F0C7
:10361000D7FC206840F48070206001E039E019E0B8
:10362000280703D5786940F008007861280503D59C
:10363000786940F400607861002D03DA786940F021
:1036400000407861680703D578687968014379603C
:10365000BDE8F09FDAF81400D7F81019C1F3120191
:10366000411ACAF81810CAF81480802004F0EEFC41
:10367000BAF8060038B19AF80010090603D40748D2
:1036800003F02AFC6DE70028FCD1044803F024FC79
:1036900067E7C7F80029C7F8002B88E780130020E8
:1036A0001C080050040800500000002010B50A4813
:1036B00090F80016002901D0002010BD00F2016032
:1036C0001021017000214170062181700349FF2003
:1036D000FDF7FAFC012010BD74140020751A0020BB
:1036E00010B50A4890F80016002901D0002010BD3E
:1036F00000F20160102101700021417007218170EA
:103700000349FF20FDF7E0FC012010BD74140020E8
:10371000751A002010B50A4890F80016002901D04B
:10372000002010BD00F201601021017000214170E5
:10373000042181700349FF20FDF7C6FC012010BD64
:1037400074140020751A002001B50D4890F8001679
:10375000002901D0002008BD00F201601021017095
:1037600000214170052181709DF80010C1709DF805
:10377000011001710349FF20FDF7A6FC012008BDDF
:1037800074140020751A0020034981F84C050120AB
:1037900081F84D05704700007414002010B50E48E4
:1037A0000188490716D54FF6FB7101804FF6FF31AE
:1037B00001800A48006800060CD40748103800F061
:1037C000D3FE074C20806188401A80B2FDF766FF67
:1037D0002088608010BD00001004004010080240E6
:1037E000E201002070B504460D460D48044200D1A8
:1037F00024B94FF488610B4803F0E6F935B1012D87
:1038000004D040F24241074803F0DEF906481DB1FA
:1038100001682143016070BD0168A143016070BD72
:1038200000EE8B81248900083038024070B50446D0
:103830000D4634F0F10000D124B94FF48C610A48F0
:1038400003F0C2F935B1012D04D040F261410648C0
:1038500003F0BAF905481DB101682143016070BD4C
:103860000168A143016070BD24890008343802401A
:1038700070B504460D460D48044200D124B940F20B
:10388000AD410B4803F0A0F935B1012D04D040F251
:10389000AE41074803F098F906481DB1016821437D
:1038A000016070BD0168A143016070BD003601C9AF
:1038B000248900084038024070B504460D460D4882
:1038C000044200D124B94FF4AC610B4803F07CF9F9
:1038D00035B1012D04D040F26151074803F074F96D
:1038E00006481DB101682143016070BD0168A14314
:1038F000016070BD003601C92489000820380240EB
:1039000070B504460D460D48044200D124B940F27A
:10391000D5410B4803F058F935B1012D04D040F2E0
:10392000D641074803F050F906481DB1016821430C
:10393000016070BD0168A143016070BDCCA0F8FFBB
:10394000248900084438024070B504460D460D48ED
:10395000044200D124B940F284510B4803F034F9F9
:1039600035B1012D04D040F28551074803F02CF900
:1039700006481DB101682143016070BD0168A14383
:10398000016070BDCCA6F8FF2489000824380240ED
:1039900070B5244B196801F00C01234C00291ED08E
:1039A000661004291DD008291DD00460196801F093
:1039B000F00109091D4A545C0168E14041601C683E
:1039C00004F4E054A40A145D21FA04F484601B6832
:1039D00003F460435B0BD25CD140C16070BD0460F6
:1039E000E4E70660E2E70F4A121F1168C1F3805551
:1039F000116801F03F0135B1B6FBF1F11468C4F371
:103A00008814614305E0B4FBF1F11468C4F3881431
:103A100061431268C2F30142521C5200B1FBF2F141
:103A20000160C3E7083802400024F40014000020BD
:103A30002DE9F04F2DED028B85B0B0EE408ADFF816
:103A40000882DFF808B2002498F839000127804D79
:103A50004FF4FA7A40F2DC59002813D02C806C80A5
:103A6000A5F804A0002008EB4001A1F83A90401C02
:103A7000C0B20428F7D38BF8877105B0BDEC028B78
:103A8000BDE8F08FB8F94200724EB0F5966F04DAD7
:103A90000120FFF79BFA37700EE040F2A4618842E4
:103AA00005DA0220FFF792FA0220307004E00320CA
:103AB000FFF78CFA032030707178307832468142FB
:103AC00005D05070032802D19078401C9070614E50
:103AD0009178361FC9B17088B0F5FA6F0DD200EE3B
:103AE000900AF8EE600A9FED5C0A48EE000ABCEE10
:103AF000E00A10EE100A708007E0032901D3FFF7F7
:103B0000EFFD10B1748053488470B8F94800A0F2FA
:103B1000A560B0F5F97F14D8307820B937702C81C2
:103B20006C81AC81EC802C806C80A5F804A0002016
:103B300008EB4001A1F83A90401CC0B20428F7D32A
:103B40007FE03470B8F93A00A0F2DC5000EE100AC1
:103B5000B8EEC00ADFED418AB0EE681A9FED408AE8
:103B6000F0EE480A03F04CFD8DED010AB8F93C0077
:103B7000B0EE681AA0F2DC5000EE100AF0EE480A2F
:103B8000B8EEC00A03F03CFD8DED020AB8F93E0024
:103B9000DFED348AA0F2DC5000EE100AB0EE681AB5
:103BA000F0EE480AB8EEC00A03F02AFD8DED030AD4
:103BB000B8F94000B0EE681AA0F2DC5000EE100A2E
:103BC000F0EE480AB8EEC00A03F01AFD8DED040AC3
:103BD0002548007828B18DED018A8DED028A8DEDA2
:103BE000048A9DED010ADFED210A9FED211A20EEE6
:103BF000200A20EE010ABDEEC00A10EE100A28804D
:103C00009DED020A20EE200ADFED1A0A20EE200ABE
:103C1000BDEEC00A10EE100A6880B8F83E00A0F5AC
:103C20007A70A8809DED040ADFED130A20EE200AC9
:103C3000DFED120A20EE200ABDEEC00A10EE100AD7
:103C4000E8808BF8877118E7362C00207414002068
:103C50005C1C00203200002000007A44000020425A
:103C6000000000000000A0428A0100208F360E3BB9
:103C700000C05A4500C05AC5C6F91B3B000048C3E6
:103C80007047000070B50A4D40F225542146284681
:103C900001F052FD00280AD02146284601F0ECFB35
:103CA000281D0088C0B2BDE87040FDF795BF70BD0B
:103CB0000014014070B500240A4DFFF735F804EBFD
:103CC000440205EB82018B68CE88C31AB34203D34A
:103CD000886055F822008047641CE4B2072CECD3BE
:103CE00070BD00005800002030B50020094B4FF493
:103CF0007A74012500EB400103EB81018A88B4FB53
:103D0000F2F2CA8002B9CD80401CC0B20728F1D3BC
:103D100030BD000058000020FEF7B6B910B50C46C3
:103D2000084BBB211970332159709C700146224603
:103D3000D81CFCF747FAE41CE1B2BDE8104001488A
:103D4000FEF70AB92E2100200CB500220192009244
:103D50002749086840F4803008604FF4A063086881
:103D600000F4003000900198401C0190009810B9B8
:103D700001989842F3D10868800302D50120009091
:103D800000E000920098012831D1194840300268C3
:103D900042F0805202601748026842F4804202609A
:103DA0001348083002680260026842F40042026070
:103DB000026842F4A0520260021F0F4B13600A68AF
:103DC00042F080720A600A689201FCD50B4A40F208
:103DD00005611160016821F003010160016841F093
:103DE000020101600168C1F381010229FAD10CBD11
:103DF000003802400070004008544007003C024078
:103E000010B50446042C05D0601D03D0DC21084801
:103E100002F0DAFE4FF0E020042C04D0016921F01A
:103E20000401016110BD016941F00401016110BD8F
:103E30009C8700080348D0E90012491C42F10002A7
:103E400006C07047E80100201FB56846FFF7A0FDD7
:103E500001984FF47A71B0FBF1F0C008B0F1807FA7
:103E60000CD220F07F414FF0E020491E4161064A0C
:103E7000F021117000218161072101616FF00400C0
:103E8000FFF7BEFF1FBD000023ED00E010B5124894
:103E9000016841F4700101601048016841F00101BE
:103EA00001600E4A00210832116002680C4B1A4072
:103EB0000260031D0B4A1A60026822F4802202602D
:103EC00006480C300160FFF73FFF03494FF00060E8
:103ED0008039086010BD000088ED00E00038024025
:103EE000FFFFF6FE1030002470B5048C24F00104AE
:103EF0000484058B048C25F0F3054FF6FF7606EA63
:103F0000031313432B4324F00A020A4342F0010136
:103F10000383018470BD70B5048C24F01004048404
:103F2000058B068C4FF6FF7404EA011125F47345E6
:103F300004EA03332B4304EA02221A4326F0A003C7
:103F40000B4343F010010283018470BDF0B5048C73
:103F500024F480740484868B058C4FF6FF7707EA7F
:103F6000012426F0F30607EA03111143314325F437
:103F70002062224342F4807281830284F0BD70B5D6
:103F8000048C24F480540484858B068C4FF6FF74D3
:103F900004EA013125F4734504EA02222A4304EAC3
:103FA0000333134326F420420A4342F480518383AF
:103FB000018470BDFFF7F2BB7047000010B5084CDC
:103FC0000121204600F002FB002807D001212046F5
:103FD00000F0E8F8BDE81040FCF79CBD10BD000003
:103FE0000014004070B504460D46214884422BD091
:103FF000B4F1804F28D01F48844225D01E48844207
:1040000022D01E4884421FD01D4884421CD01D4827
:10401000844219D01C48844216D01C48844213D0D4
:104020001B48844210D01B4884420DD01A48844259
:104030000AD01A48844207D01948844204D040F27A
:104040000721184802F0C0FD35B1012D04D04FF40E
:104050000271144802F0B8FD25B1208840F08000BC
:10406000208070BD208820F08000208070BD00007E
:10407000000001400004004000080040000C004027
:1040800000100040001400400004014000400140C6
:10409000004401400048014000180040001C00405E
:1040A00000200040748900083EB50446012120200C
:1040B000FFF7DEFB114D284600F052F90194532022
:1040C000ADF800000020ADF80800ADF80200694628
:1040D000284601F023F90121284600F011F80122B9
:1040E0001146284600F0CCFB0121284600F0ACF830
:1040F00000212020FFF7BCFB3EBD00000014004063
:1041000070B504460D46194884422BD0B4F1804F57
:1041100028D01748844225D01648844222D0164819
:1041200084421FD0154884421CD01548844219D0BF
:104130001448844216D01448844213D01348844251
:1041400010D0134884420DD0124884420AD012483D
:10415000844207D01148844204D040F6AE11104882
:1041600002F032FDE843208270BD000000000140F3
:104170000004004000080040000C00400010004017
:104180000014004000040140004001400044014090
:104190000048014000180040001C00400020004082
:1041A0007489000870B504460D46194884422BD026
:1041B000B4F1804F28D01748844225D01648844255
:1041C00022D0164884421FD0154884421CD015487E
:1041D000844219D01448844216D01448844213D023
:1041E0001348844210D0134884420DD012488442B0
:1041F0000AD01248844207D01148844204D040F6C5
:10420000F311104802F0E0FCE843208270BD00008A
:10421000000001400004004000080040000C004085
:104220000010004000140040000401400040014024
:10423000004401400048014000180040001C0040BC
:10424000002000407489000870B504460D462148DE
:1042500084422BD0B4F1804F28D01F48844225D00F
:104260001E48844222D01E4884421FD01D488442EA
:104270001CD01D48844219D01C48844216D01C48CA
:10428000844213D01B48844210D01B4884420DD076
:104290001A4884420AD01A48844207D019488442F6
:1042A00004D040F24D21184802F08EFC35B1012DAA
:1042B00004D040F24E21144802F086FC25B120883B
:1042C00040F00100208070BD208820F00100208097
:1042D00070BD0000000001400004004000080040E4
:1042E000000C004000100040001400400004014099
:1042F00000400140004401400048014000180040D7
:10430000001C0040002000407489000870B504467D
:104310000D461048844207D00F48844204D040F62E
:10432000D2010E4802F050FC35B1012D04D040F608
:10433000D3010A4802F048FC2DB134F8440F40F490
:104340000040208070BD34F8440FC0F30E00208080
:1043500070BD0000000001400004014074890008A5
:104360002DE9F05F0446734D734E744FDFF8D08132
:10437000DFF8D0A1DFF8D0B14FEAB549AC4224D084
:10438000B4F1804F21D0B4421FD0BC421DD044456F
:104390001BD04C4519D0544517D05C4515D06B48FF
:1043A000844212D06A4884420FD06A4884420CD0BA
:1043B0006948844209D06948844206D068488442EA
:1043C00003D0C521674802F0FFFBAC4209D10121AF
:1043D0000846FFF7B9FABDE8F05F00210120FFF7BA
:1043E000B3BAB4F1804F0BD0B44213D101210220F3
:1043F000FFF762FABDE8F05F00210220FFF75CBA28
:1044000001210846FFF758FABDE8F05F00210120BE
:10441000FFF752BABC4209D101210420FFF74CFA40
:10442000BDE8F05F00210420FFF746BA444509D1FA
:1044300001210820FFF740FABDE8F05F00210820C5
:10444000FFF73ABA4C4509D101211020FFF734FAA1
:10445000BDE8F05F00211020FFF72EBA544509D1C6
:1044600001212020FFF728FABDE8F05F002120207D
:10447000FFF722BA5C4509D101210220FFF764FA57
:10448000BDE8F05F00210220FFF75EBA2F488442AA
:104490000AD101210C042046FFF756FA2046BDE858
:1044A000F05F0021FFF750BA294884420AD1012168
:1044B0004C042046FFF748FA2046BDE8F05F002193
:1044C000FFF742BA234884420AD101218C042046D6
:1044D000FFF73AFA2046BDE8F05F0021FFF734BA53
:1044E0001D48844209D101214020FFF7E5F9BDE8CC
:1044F000F05F00214020FFF7DFB91848844209D15E
:1045000001218020FFF7D8F9BDE8F05F002180206D
:10451000FFF7D2B9124884420AD1841501212046FE
:10452000FFF7CAF92046BDE8F05F0021FFF7C4B9E4
:10453000BDE8F09F0000014000040040000800407A
:10454000000C004000140040000401400040014005
:10455000004401400048014000180040001C004099
:10456000002000407489000810B504460F488442BA
:1045700019D0B4F1804F16D00D48844213D00D48A5
:10458000844210D00C4884420DD00C4884420AD09A
:104590000B48844207D00B48844204D04FF4FF619B
:1045A000094802F011FBA06B10BD000000000140A3
:1045B0000004004000080040000C004000040140DE
:1045C00000400140001800407489000870B504469E
:1045D0000D460026264884422BD0B4F1804F28D0C7
:1045E0002448844225D02448844222D0234884424F
:1045F0001FD0234884421CD02248844219D022482C
:10460000844216D02148844213D02148844210D0DD
:10461000204884420DD0204884420AD01F4884425A
:1046200007D01F48844204D040F6CC111D4802F048
:10463000CBFA012D12D0022D10D0042D0ED0082D52
:104640000CD0102D0AD0202D08D0402D06D0802D62
:1046500004D040F6CD11134802F0B6FA218A294061
:10466000A089284009B100B10126304670BD000084
:10467000000001400004004000080040000C004021
:1046800000100040001400400004014000400140C0
:10469000004401400048014000180040001C004058
:1046A00000200040748900082DE9F05F04460D46A3
:1046B000634E644FDFF89081DFF89091DFF890A1AE
:1046C0004FF0804BB44220D05C451ED0BC421CD081
:1046D00044451AD04C4518D0544516D05D48844204
:1046E00013D05D48844210D05C4884420DD05C48B1
:1046F00084420AD05B48844207D05B48844204D09D
:1047000040F26571594802F05FFA688840B10228AA
:1047100006D00A2804D040F26671544802F054FAD8
:10472000A888012808D0022806D0032804D040F227
:1047300067714E4802F048FAE88850B1042808D062
:10474000082806D00C2804D04FF4ED61474802F049
:104750003BFA28890F2804D940F26971434802F0D6
:1047600033FA288800B304282AD008284BD0B44252
:104770000ED05C450CD0BC420AD0444508D04C4514
:1047800006D0544504D040F28B71384802F01CFA30
:104790002B89AA8869882046FFF7F1FBE988204623
:1047A000BDE8F05F00F07CBD2B89AA8869882046AF
:1047B000FFF79AFBE9882046BDE8F05F00F096BC61
:1047C000B44214D05C4512D0BC4210D044450ED047
:1047D0004C450CD054450AD01E48844207D020488E
:1047E000844204D040F27771204802F0EDF92B8921
:1047F000AA8869882046FFF78EFBE9882046BDE835
:10480000F05F00F0CBBCB4420ED05C450CD0BC4293
:104810000AD0444508D04C4506D0544504D040F257
:104820008171124802F0D0F92B89AA886988204644
:10483000FFF78CFBE9882046BDE8F05F00F0F6BC8E
:10484000000001400004004000080040000C00404F
:104850000004014000400140004401400048014084
:1048600000180040001C004000200040748900082F
:1048700000210180418001228280C1800181704736
:1048800070B504460D461646234884422BD0B4F139
:10489000804F28D02148844225D02148844222D00C
:1048A000204884421FD0204884421CD01F488442A4
:1048B00019D01F48844216D01E48844213D01E4887
:1048C000844210D01D4884420DD01D4884420AD035
:1048D0001C48844207D01C48844204D040F63D1155
:1048E0001A4802F071F9280A00D125B940F63E11A4
:1048F000164802F069F936B1012E04D040F63F1196
:10490000124802F061F91EB1A0892843A08170BD50
:10491000A089A843A08170BD0000014000040040B0
:1049200000080040000C004000100040001400404F
:1049300000040140004001400044014000480140A3
:1049400000180040001C004000200040748900084E
:1049500008B537208DF8000007208DF801000120F0
:104960008DF802008DF803006846FEF7AFFC08BD25
:104970002DE9F04704460D46DFF84891DFF848A1DD
:104980004C4524D0B4F1804F21D0504884421ED0F1
:104990004F4884421BD04F48844218D0544516D00B
:1049A0004D48844213D04D48844210D04C48844234
:1049B0000DD04C4884420AD04B48844207D04B4823
:1049C000844204D040F29E21494802F0FDF8288834
:1049D00070B110280CD020280AD0302808D06028C8
:1049E00006D0702804D040F29F21414802F0ECF834
:1049F000688830B1012804D04FF428713C4802F097
:104A0000E3F8A88930B1022804D040F2A121384847
:104A100002F0DAF8208C20F001002084218CA78895
:104A2000208B20F0700020F00300B5F8008048EAE9
:104A3000000821F00201A88908436E8806434C450E
:104A400001D0544535D1A88830B1042804D040F2B3
:104A5000BE21274802F0B8F8E88930B1082804D010
:104A600040F2BF21224802F0AFF8688AB0F5007F1B
:104A700005D020B14FF430711D4802F0A5F8288A06
:104A8000B0F5807F05D020B140F2C121184802F076
:104A90009BF826F00800E989014321F00400AE8864
:104AA000064327F4807020F40071288A08436F8A37
:104AB0000743A780A4F81880A86860632684BDE82F
:104AC000F0870000000001400004014000040040A5
:104AD00000080040000C004000400140004401403C
:104AE0000048014000180040001C00400020004029
:104AF0007489000870B504460D461B48844225D0D1
:104B0000B4F1804F22D0194884421FD01848844203
:104B10001CD01848844219D01748844216D0174830
:104B2000844213D01648844210D0164884420DD0D7
:104B3000154884420AD01548844207D0144884425C
:104B400004D040F2D341134802F03EF8082D05D0BE
:104B500025B140F2D4410F4802F036F8208B20F006
:104B600008002843208370BD00000140000400407D
:104B700000080040000C00400004014000400140DB
:104B8000004401400048014000180040001C004063
:104B900000200040748900082DE9F05F04460D46AE
:104BA000DFF84C91DFF84CA14C4518D0B4F1804FA0
:104BB00015D05148844212D0504884420FD05048FA
:104BC00084420CD054450AD04E48844207D04E4807
:104BD000844204D040F2EF214C4801F0F5FF2888D0
:104BE00070B110280CD020280AD0302808D06028B6
:104BF00006D0702804D04FF43C71444801F0E4FF23
:104C0000688830B1012804D040F2F1213F4801F01A
:104C1000DBFFA88930B1022804D040F2F2213B48E2
:104C200001F0D2FF208C20F010002084208CA78877
:104C3000218B21F4E04121F440712A884FF6FF7B5B
:104C40000BEA022848EA010820F02001A8890BEAB3
:104C50000010084369880BEA011606434C4501D051
:104C600054453DD1A88830B1042804D04FF4447194
:104C7000264801F0A9FFE88930B1082804D040F2A5
:104C80001131224801F0A0FF688AB0F5007F05D0FD
:104C900020B140F212311D4801F096FF288AB0F58C
:104CA000807F05D020B140F21331184801F08CFF0D
:104CB00026F08001E8890BEA0010084320F040004C
:104CC000A9880BEA0116064327F4806020F40061EE
:104CD000288A0BEA80000843698A0BEA81070743A8
:104CE000A780A4F81880A868A0632684BDE8F09F78
:104CF00000000140000401400004004000080040A2
:104D0000000C004000400140001800407489000879
:104D100070B504460D461748844219D0B4F1804F4F
:104D200016D01548844213D01448844210D0144839
:104D300084420DD0134884420AD01348844207D0DD
:104D40001248844204D040F2F141114801F03CFF86
:104D5000082D05D025B140F2F2410D4801F034FF95
:104D6000208B20F400604FF6FF7101EA052101431A
:104D7000218370BD00000140000400400008004095
:104D8000000C0040000401400040014000180040B9
:104D9000748900082DE9F05F04460D46DFF8409164
:104DA000DFF840A14C4512D0B4F1804F0FD04E48EF
:104DB00084420CD04D48844209D04D48844206D0EC
:104DC000544504D04FF450714A4801F0FDFE288844
:104DD00070B110280CD020280AD0302808D06028C4
:104DE00006D0702804D040F24131424801F0ECFE78
:104DF000688830B1012804D040F242313D4801F0CA
:104E0000E3FEA88930B1022804D040F2433139488A
:104E100001F0DAFE208C20F480702084218CA78899
:104E2000A08B20F0700020F00300B5F8008048EA65
:104E3000000821F40071A8894FF6FF7B0BEA0020DF
:104E4000084369880BEA012606434C4501D05445C6
:104E50003DD1A88830B1042804D04FF458712548BA
:104E600001F0B2FEE88930B1082804D040F2613187
:104E7000204801F0A9FE688AB0F5007F05D020B176
:104E800040F262311B4801F09FFE288AB0F5807F16
:104E900005D020B140F26331164801F095FE26F4AA
:104EA0000061E8890BEA0020084320F48060A988AB
:104EB0000BEA0126064327F4805020F40051288A8B
:104EC0000BEA00100843698A0BEA01170743A78021
:104ED000A4F81C80A868E0632684BDE8F09F000069
:104EE00000000140000401400004004000080040B0
:104EF000000C00407489000870B504460D46124845
:104F0000844213D0B4F1804F10D0104884420DD0A9
:104F10000F4884420AD00F48844207D00E4884428A
:104F200004D040F20E510D4801F04EFE082D05D080
:104F300025B140F20F51094801F046FEA08B20F048
:104F400008002843A08370BD000001400004004019
:104F500000080040000C0040000401407489000873
:104F60002DE9F05F04460D46DFF8E490DFF8E4A099
:104F70004C4512D0B4F1804F0FD0374884420CD04A
:104F80003648844209D03648844206D0544504D07D
:104F90004FF46471334801F017FE288870B110286F
:104FA0000CD020280AD0302808D0602806D07028DD
:104FB00004D040F291312B4801F006FE688830B1F0
:104FC000012804D040F29231264801F0FDFDA88965
:104FD00030B1022804D040F29331224801F0F4FDB0
:104FE000208C20F480502084208CA688A18B21F472
:104FF000E04121F440712A884FF6FF7B0BEA02273B
:105000000F4320F40051A8890BEA00300843698857
:105010000BEA013848EA00084C4501D054450FD14D
:10502000288AB0F5807F05D020B140F2B1310D481B
:1050300001F0CAFD26F48040298A0BEA8116064356
:10504000A680A783A8682064A4F82080BDE8F09F0C
:10505000000001400004014000040040000800403E
:10506000000C00407489000870B504460D461448D1
:10507000844213D0B4F1804F10D0124884420DD036
:10508000114884420AD01148844207D01048844213
:1050900004D040F22B510F4801F096FD082D05D0A9
:1050A00025B140F22C510B4801F08EFDA08B20F46D
:1050B00000604FF6FF7101EA05210143A18370BD35
:1050C000000001400004004000080040000C0040C7
:1050D0000004014074890008002101804180818022
:1050E00081608181C18101824182704770B504462F
:1050F0000D461E48844225D0B4F1804F22D01C4872
:1051000084421FD01B4884421CD01B48844219D0C3
:105110001A48844216D01A48844213D0194884424F
:1051200010D0194884420DD0184884420AD018483B
:10513000844207D01748844204D040F6280116481C
:1051400001F042FD55B1042D08D0082D06D00C2DDC
:1051500004D040F62901104801F036FD208B20F0E4
:105160000C002083208B2843208370BD0000014069
:105170000004004000080040000C00400004014012
:105180000040014000440140004801400018004038
:10519000001C0040002000407489000870B50446DF
:1051A0000D461A48844219D0B4F1804F16D01848E1
:1051B000844213D01748844210D0174884420DD03F
:1051C000164884420AD01648844207D015488442C3
:1051D00004D040F64101144801F0F6FC55B1042D0D
:1051E00008D0082D06D00C2D04D040F642010E4800
:1051F00001F0EAFC208B20F440602083208B4FF6E6
:10520000FF7101EA05210843208370BD00000140C1
:105210000004004000080040000C00400004014071
:1052200000400140001800407489000870B5044631
:105230000D461548844213D0B4F1804F10D0134866
:1052400084420DD0124884420AD01248844207D0CA
:105250001148844204D040F65901104801F0B4FCD2
:1052600055B1042D08D0082D06D00C2D04D040F6E1
:105270005A010A4801F0A8FCA08B20F00C00A08382
:10528000A08B2843A08370BD0000014000040040B3
:1052900000080040000C0040000401407489000830
:1052A00070B504460D461748844213D0B4F1804FC0
:1052B00010D0154884420DD0144884420AD01448B6
:1052C000844207D01348844204D040F6710112484A
:1052D00001F07AFC55B1042D08D0082D06D00C2D14
:1052E00004D040F672010C4801F06EFCA08B20F453
:1052F0004060A083A08B4FF6FF7101EA05210843AF
:10530000A08370BD00000140000400400008004080
:10531000000C004000040140748900082DE9F05F92
:1053200004460D463C4FDFF8F480DFF8F490DFF8D8
:10533000F4A03D4E4FEAB74BBC4226D0B4F1804FAB
:1053400023D0444521D04C451FD054451DD05C4549
:105350001BD03648844218D0B44216D03448844218
:1053600013D03448844210D0334884420DD033489F
:1053700084420AD03248844207D03248844204D062
:1053800040F21F11304801F01FFC688860B11028FE
:105390000AD0202808D0402806D0602804D04FF436
:1053A0009071294801F010FC288950B1B0F5807F38
:1053B00007D0B0F5007F04D040F22111224801F05F
:1053C00003FC2088BC420AD0B44208D0B4F1804F1C
:1053D00005D0444503D04C4501D0544503D120F0BD
:1053E0007001688808435C4506D010498C4203D0A0
:1053F00020F440712889084320806868E06228888A
:105400002085BC4201D0B44201D1A87A2086012077
:10541000A082BDE8F09F00000000014000040040B1
:1054200000080040000C004000040140001400404F
:105430000040014000440140004801400018004085
:10544000001C004000200040748900084FF0FF312C
:10545000416000210180018141808172704700F02C
:1054600051BB00F085BB00F035BC00F065BC00F01E
:1054700099BCFEF707BC00002DE9F04704460D4635
:10548000224FDFF88C80DFF88C90DFF88CA0BC42D4
:1054900010D044450ED04C450CD02048844209D051
:1054A0001F48844206D0544504D040F299511D480B
:1054B00001F08AFBA5F5C06040F66A1626380ED0CA
:1054C000A5F5A06025380AD0A5F50060463806D0BD
:1054D000B54204D040F29A51124801F075FBB54232
:1054E0000CD1BC420AD0444508D04C4506D05445A6
:1054F00004D040F29F510B4801F066FB290A0120BD
:105500008840C0432080BDE8F087000000100140C3
:10551000004400400048004000140140004C00409E
:1055200000500040C489000870B505460C46234869
:1055300085420DD0224885420AD02248854207D0B4
:105540002148854204D04FF4B671204801F03CFB5D
:10555000208838B1B0F5006F04D040F26D111B48BF
:1055600001F032FB608838B1B0F5806F04D04FF4A1
:10557000B771164801F028FBA08838B1B0F5007F5C
:1055800004D040F26F11114801F01EFBE08838B1E1
:10559000B0F5807F04D04FF4B8710C4801F014FBD3
:1055A000288A20F4706120886288E3881043A288EA
:1055B0001A4310430843288270BD000000100140C8
:1055C000004400400048004000140140C489000825
:1055D00070B504460D461548844213D014488442E1
:1055E00010D0144884420DD0134884420AD0134886
:1055F000844207D01248844204D040F29B111148E3
:1056000001F0E2FA35B1012D04D04FF4CE710D480E
:1056100001F0DAFA25B1A08940F40050A08170BDF4
:10562000A08920F40050A08170BD0000001001404E
:105630000044004000480040004C00400050004042
:1056400000140140C48900082DE9F0470446334D99
:10565000334E344FDFF8D080DFF8D090DFF8D0A0A1
:10566000AC420DD0B4420BD0BC4209D0444507D067
:105670004C4505D0544503D0B5212E4801F0A4FA7D
:10568000AC4209D101211020FEF75EF9BDE8F047D8
:1056900000211020FEF758B9B4420AD101214C0470
:1056A0002046FEF709F92046BDE8F0470021FEF745
:1056B00003B9BC420AD101218C042046FEF7FCF854
:1056C0002046BDE8F0470021FEF7F6B844450AD170
:1056D0000121CC042046FEF7EFF82046BDE8F04754
:1056E0000021FEF7E9B84C450AD101210C052046FE
:1056F000FEF7E2F82046BDE8F0470021FEF7DCB8EF
:10570000544509D101212020FEF71EF9BDE8F047DC
:1057100000212020FEF718B9BDE8F08700100140F5
:105720000044004000480040004C00400050004051
:1057300000140140C48900082DE9F05F05460C46BD
:105740000026394FDFF8E480DFF8E490DFF8E4A0CA
:10575000BD4210D045450ED04D450CD0364885424F
:1057600009D03648854206D0554504D04FF4AA6189
:10577000334801F029FA40F66A1B282C27D0A4F5FB
:10578000E060273823D0A4F5C06026381FD0A4F5E8
:10579000A06025381BD0A4F58060243817D0A4F56C
:1057A0000060463813D05C4511D0B4F5587F0ED058
:1057B000A4F5407025380AD0B4F5187F07D0B4F5A9
:1057C000B07F04D040F251511D4801F0FDF95C4515
:1057D0000CD1BD420AD0454508D04D4506D05545AF
:1057E00004D040F25651164801F0EEF9C4F34211CC
:1057F00004F01F02012303FA02F001290DD002294F
:105800000ED0A98A0140220A93402A881A4009B181
:1058100002B101263046BDE8F09FA9890140F2E7B8
:10582000298A0140EFE700000010014000440040D9
:105830000048004000140140004C0040005000406F
:10584000C48900082DE9F05F04460D461646354F21
:10585000DFF8D480DFF8D490DFF8D4A0BC4210D0B9
:1058600044450ED04C450CD03248844209D03248D1
:10587000844206D0544504D040F2BD412F4801F087
:10588000A3F940F66A1B282D1CD0A5F5E060273847
:1058900018D0A5F5C060263814D0A5F5A06025382D
:1058A00010D0A5F5806024380CD0A5F500604638EE
:1058B00008D05D4506D0602D04D040F2BE411F489F
:1058C00001F082F936B1012E04D040F2BF411B48ED
:1058D00001F07AF95D450CD1BC420AD0444508D0AC
:1058E0004C4506D0544504D040F2C441134801F061
:1058F0006BF9C5F3421005F01F0201219140012808
:1059000008D0022808D0143446B12068084320602B
:10591000BDE8F09F0C34F7E71034F5E720688843C2
:105920002060F5E7001001400044004000480040BE
:1059300000140140004C004000500040C4890008A1
:105940002DE9FF4704460D46604EDFF88481DFF8FD
:105950008491614FB4420FD044450DD04C450BD0DB
:105960005E48844208D05E48844205D0BC4203D0E1
:10597000EB215C4801F028F928685B49401E884209
:1059800003D3EC21574801F01FF9A8884FF4805A3F
:1059900028B1504503D0ED21524801F015F9E888AF
:1059A00058B1504509D0B0F5005F06D0B0F5405F62
:1059B00003D0EE214B4801F007F9288948B1B0F532
:1059C000806F06D0B0F5C06F03D0EF21454801F0DD
:1059D000FBF8688930F00C0100D118B9F02141487A
:1059E00001F0F2F8A88960B1B0F5807F09D0B0F578
:1059F000007F06D0B0F5407F03D0F121394801F097
:105A0000E3F8A88958B1B44209D0444507D04C45C1
:105A100005D0BC4203D0F621324801F0D5F8208AE7
:105A200020F44051E88808432082A18941F20C60AB
:105A30008143A8882A8910436A890A431043A081B8
:105A4000A08A20F44070A9890143A1826846FDF72D
:105A50009FFFB44201D0BC4201D1039800E00298FC
:105A6000A189090408D500EBC00101EB00102968E9
:105A70004900B0FBF1F007E000EBC00101EB0010C2
:105A800029688900B0FBF1F06422B0FBF2F1090152
:105A90000B096FF018056B4300EB8300A3891D040D
:105AA0004FF0320307D503EBC000B0FBF2F000F07B
:105AB0000700084306E003EB0010B0FBF2F000F033
:105AC0000F0008432081BDE8FF870000001001405F
:105AD000004400400048004000140140004C0040D9
